:040000008A11112828
:10000800FE00030EF3000408F4000A08F50083124A
:1000180003137F08F6008A114F2A8A11CB2C8A1104
:100028005E258A118A112C258A118A112C248A119D
:100038008A114F258A11831203135308283E84001E
:1000480083130008930028283708031D2C28282824
:100058006708031D30285E29E7015129CB010314E5
:10006800CB0DBD010314BD0D7E30EE006E08D70028
:1000780055088A110C238A1183120313EE006E08A7
:10008800BB003B08053EEE006E08D0003008EE00CD
:100098006E08E0003108EE006E08E2003208EE005B
:1000A8006E08E3003308EE006E08E4003408EE0042
:1000B8006E08E5003508EE006E08E6005E2902309D
:1000C800EE006E08BD005108EE006E08D7005E29EC
:1000D8000330EE006E08BD005008EE006E08D70031
:1000E8005E290430EE006E08BD005D08EE006E0863
:1000F800D7005E290530EE006E08BD006108EE00ED
:100108006E08D7005E290630EE006E08BD005F0855
:10011800EE006E08D7005E290730EE006E08BD00BD
:100128005E08EE006E08D7005E290830EE006E0803
:10013800BD005208EE006E08D7005E290930EE00B7
:100148006E08BD006008EE006E08D7005E29013019
:10015800BB023B08031DB128BA280A30EE006E081E
:10016800BD006208EE006E08D7005E290F30EE0071
:100178006E08BD008A11AA238A1183120313EE00A8
:100188006E08D7005E295E290130BB023B08031DBB
:10019800CE28D7280B30EE006E08BD006308EE00AD
:1001A8006E08D7005E290F30EE006E08BD008A1178
:1001B800AA238A1183120313EE006E08D7005E2962
:1001C8005E290130BB023B08031DEB28F4280C30E4
:1001D800EE006E08BD006408EE006E08D7005E29C8
:1001E8000F30EE006E08BD008A11AA238A1183120F
:1001F8000313EE006E08D7005E295E290130BB02AA
:100208003B08031D082911290D30EE006E08BD00BA
:100218006508EE006E08D7005E290F30EE006E0804
:10022800BD008A11AA238A1183120313EE006E08F7
:10023800D7005E295E290130BB023B08031D252932
:100248002E290E30EE006E08BD006608EE006E081E
:10025800D7005E290F30EE006E08BD008A11AA2370
:100268008A1183120313EE006E08D7005E295E29F7
:100278000F30EE006E08BD008A11AA238A1183127E
:100288000313EE006E08D7005E29CB01BD017E3056
:10029800EE006E08D7005E295E2939088400103008
:1002A800040203185E2904308A000310040DAB3ED3
:1002B80082005E294A08031D6229322ACA01252ABA
:1002C80036087E3A031D69296A29322ABC010314BB
:1002D800BC0D322A322AB608031D73297429322A22
:1002E8000230EE006E08BC00322A322A0330EE00DB
:1002F8006E08BC003608EE006E08C500322A3608C3
:10030800EE006E08C0004008893A031D8C298D292B
:1003180092290A30EE006E08BC00322A4008813A61
:10032800031D972998299E290430EE006E08BC0009
:10033800BA01322ABC01322A322A322A0530EE00AA
:100348006E08BC003608EE006E08C200322A06307D
:10035800EE006E08BC003608EE006E08C100322AB6
:100368000730EE006E08BC003608EE006E08C900C3
:10037800322A0830EE006E08BC003608EE006E081F
:10038800C600322A0930EE006E08BC003608EE00BE
:100398006E08C300322ABC013608EE006E08C7009A
:1003A8004308053A031DD929DA29F829471CDD290C
:1003B800DE29F229BF010314BF0D4208EE006E08C2
:1003C800DF004108EE006E08DE000630EE006E0821
:1003D800D5003E153E088700BA01F82900308A1179
:1003E80087248A11F829F829831203134308063A47
:1003F800031DFF29002A322A47088A116F258A110E
:10040800322A322A0B3083120313EE006E08BC0026
:100418003608EE006E08C400322ABC013608EE0029
:100428006E08C8004808031D1A2A322AE701031477
:10043800E70DB9013908EE006E08BD00322A322AEC
:10044800322A380884000C3004020318322A053096
:100458008A000310040D003E8200322A831203131F
:100468004B08031D382A422A0C1E3B2A3C2A422AE2
:10047800E7010314E70D57089900422A3D08EE00EA
:100488006E08B9003C08EE006E08B8002828282835
:1004980028288A1111283730F20072088B058C1E23
:1004A800562A572A5F2ACA010314CA0D1A08F200ED
:1004B8007208B6005F2A8C1D622A632A992A3E17A1
:1004C8003E0887001308F2007208FB007B08373AE1
:1004D800031D6F2A702A722AD301722A7B08F20040
:1004E8005308203E84007208831380000130F20014
:1004F8007208D30708305302031C832A842A892AE6
:10050800D3018A11F4238A11892ABF30F2007208B4
:1005180083120313BE053E0887005308283E840053
:100528008313000893008C11992A8C1C9C2A9D2AFD
:10053800CB2A0130F7070318F80A0030F807003013
:1005480078024E3003197702031CAB2AAC2AC72A5B
:10055800F701F801E7010314E70DB9013908F200C2
:100568007208BD000130F2007208BA0719303A0269
:10057800031CBF2AC02AC72ABA0100308A11612485
:100588008A11C72AC72A831203138C10CB2A0B1C83
:10059800CE2ACF2AFA2A0508F2007208FC007D0844
:1005A800F2007208FC057C08013A031DDC2ADD2AEA
:1005B800DF2AD501DF2A7C08023A031DE42AE52A4E
:1005C800E92AD5010314D50DE92A7C08043A031D4C
:1005D800EE2AEF2AF82A0430F2007208D50001301A
:1005E8008A1161248A11F82A0B10FA2AC830F200FD
:1005F80072088B04FF2A760883120313FF0075081C
:100608008A0074088400730E8300FE0E7E0E0900B3
:1006180083120313E900EA019B2B0430E800680801
:10062800B000B101B201B301B401B501EA0103148C
:10063800EA0DA72B0230E8006808B0005C08E80063
:100648006808B100B201B301B401B5010230E80095
:100658006808EA00A72B0730E8006808B0005C08C3
:10066800E8006808B100B201B301B401B501023075
:10067800E8006808EA00A72B0630E8006808B00020
:100688005A08E8006808B100B201B301B401B50125
:100698000230E8006808EA00A72B0330E800680881
:1006A800B0005808E8006808B100B201B301B4010D
:1006B800B5010230E8006808EA00DF01DF03DE0167
:1006C800DE03A72B0530E8006808B0005908E800E9
:1006D8006808B100B201B301B401B5010230E80005
:1006E8006808EA00A72BB0010314B00D5B08E80006
:1006F8006808B1005608E8006808B2005408E80025
:100708006808B3004F08E8006808B4004E08E8001D
:100718006808B5000630E8006808EA00CC01CD0199
:10072800F730E80068088705A72BEA01A72B6908B6
:100738008400073004020318992B04308A00031040
:10074800040DEA3E82006A08A92B080083120313ED
:10075800ED01ED0361085D07E8005F086807E9003F
:100768005E086907EA0052086A07EB0060086B0731
:10077800EC006C08ED025008803A793E031CC52B4A
:10078800C62BC92B6208ED02C92B5008803A783E67
:10079800031CCF2BD02BD32B6308ED02D32B50088F
:1007A800803A773E031CD92BDA2BDD2B6408ED0247
:1007B800DD2B5008803A763E031CE32BE42BE72B15
:1007C8006508ED02E72B5008803A753E031CED2BB7
:1007D800EE2BF12B6608ED02F12B6D08F32B0800C8
:1007E800831203132508031DFA2BFF2B87150F30DF
:1007F800F0007008CC002608031D032C072CFF30DE
:10080800F0007008CD002008373A031D0C2C0D2C81
:10081800272CA708031D112C122C272C2108F000C7
:100828007008D8002208F0007008DB002308F000E8
:100838007008D6004C08F0007008D4004D08F0008D
:100848007008CF00CE015A08F0007008A90008000F
:1008580081308316031399009A0124309800903050
:10086800831203139800831603139401831203134E
:100878009413141394161416941114119414141434
:10088800BF30E8006808BE053E0887003730E8003A
:100898006808A8005A08E8006808A900AA01AB017E
:1008A800AC01AD01AE01AF01A001A101A201A301FC
:1008B800A401A501A601A7010800F1007108031D04
:1008C800662C762C83120313B7010314B70DB801F5
:1008D800B901FE30F0007008BE05BE14BA013E082A
:1008E8008700862C83120313BA01B701FD30F0008C
:1008F8007008BE05FB30F0007008BE053E143E08C7
:100908008700862C080083120313E9006908031D79
:100918008E2C9C2CB7010314B70DB801B901FE3019
:10092800E8006808BE05BE14BA013E088700AA2C74
:10093800BA01B701FD30E8006808BE05FB30E800E1
:100948006808BE053E143E088700AA2C08008A11D4
:1009580032288A1163288A116C288A1175288A110D
:100968007E288A1187288A1190288A1199288A1145
:10097800A2288A11AB288A11C8288A11E5288A1169
:1009880002298A111F298A113C298A11492977309D
:1009980084007D308A1167258A11831320308400F2
:1009A80054308A1167258A116830FD000530FE0031
:1009B8001830FF00543084008A1142258A118A11A8
:1009C80077258A11FD0083018A1113288A11112BBA
:1009D8008A111E2B8A112F2B8A11402B8A11512B19
:0809E8008A11662B8A11772B9E
:100A00008A1164298A116F298A117A298A11832906
:100A10008A11A2298A11AB298A11B4298A11BD2908
:100A20008A11C6298A11CF298A11062A8A11112A08
:100A3000FF34063432347E34063407349F347F3436
:100A40000734013488342034013401340A340B343F
:100A50000C340D340E340134831203179E019F01B0
:100A60003F308316031385003030860087018312E0
:100A70000313850186011030870008007E088A0074
:100A80007F0882008A113E258A118000840A0408AA
:100A90007D0603190034FF0A0319FE0A422DC830EF
:100AA0008B00831603138C168C148C15831203137E
:100AB0008C01073083160313960008007E308312E2
:100AC000031392003230831603139200080064006F
:100AD0008001840A0406031900340406682D831279
:100AE0000313E9006908E8006808DA000800073421
:02400E00E2FFCF
:00000001FF
