:040000008A11112828
:10000800FE00030EF4000408F5000A08F600831247
:1000180003137F08F7008A1113288A1170298C1D91
:100028001628172832281308F3007D08203E84007C
:100038007308831380007D08283E8400000893001D
:100048000130F3007308FD0707307D02031C2D28DB
:100058002E283128FD01FB01FA018C118C1C352852
:1000680036286D280130F3007308B8078A11782004
:100078008A118A118E218A118A11D3218A11831239
:10008800031321088A11C1208A113730F30073083D
:1000980083120313A8008A11B4218A11F30073088C
:1000A80083120313A9007808F3007308AA007C08D8
:1000B800F3007308AB00AC017B08F3007308AD00D4
:1000C8007A08F3007308AE00AF01B8018C106D28F0
:1000D8006D287708FF0076088A0075088400740E7A
:1000E8008300FE0E7E0E09000130831203139F0069
:1000F8009F147E289F18812882287E2883281E081E
:10010800F0007008F9007908F0007008F800F81F8E
:100118008E288F2895287808803EF0007008F8000F
:100128009B287808813EF0007008F8009B28F809A1
:10013800F80A05309F009F14A1289F18A428A52815
:10014800A128A6281E08F0007008B6003608F0009E
:100158007008FC00FC1FB128B228B8287C08803E33
:10016800F0007008FC00BE287C08813EF000700892
:10017800FC00BE28FC09FC0A0800F2007208F00026
:10018800F101F01BF103701CCA28CB28D228DF30FC
:10019800F0007008831203138505D6288312031311
:1001A8008516D6287208F000F101F01BF103F01C47
:1001B800DE28DF28E4287F30F00070088605E6286E
:1001C8008617E6287208F000F101F01BF103701D94
:1001D800EE28EF28F428DF30F00070088605F628AE
:1001E8008616F62808008316031394018312031356
:1001F80094131413941614169411141594101410BF
:100208008A11A9218A1183120313BB003B08A90094
:100218007808BB003B08AA007C08BB003B08AB0081
:10022800AC017B08BB003B08AD007A08BB003B086B
:10023800AE00AF01A10108002030831603139F0010
:100248000130831203139F009F142A299F182D2918
:100258002E292A292F291E08B9003908B30005308C
:100268009F009F1437299F183A293B2937293C2991
:100278001E08B9003908B40008008A119C218A11A7
:100288008A115B218A118A11F7208A118A11C921E2
:100298008A118A1120218A1151298A1180218A11F3
:1002A8008A11BF218A11512951298A111128033035
:1002B800831203179E009F010F30831603138500D6
:1002C800503086007F30870020308312031385006A
:1002D800A030860087010800783084007E308A11BB
:1002E800DD218A1183132030840039308A11DD2101
:1002F8008A1183018A11412983120313051D852957
:1003080086298A29851989298A298D29FB01FB03D0
:100318008D29080083120313051D93299429982910
:100328008519972998299B29FB01FB039B2908001C
:100338004130831603138F007E308312031392001B
:10034800FF30831603139200080083120313BA01C7
:1003580007081F39B9003908BA003A08B329080054
:10036800F1018312031307081F39F0007008F10028
:100378007108BE290800831203138519C429C529E9
:10038800C829FA01FA03C8290800C0308B0083166F
:1003980003138C148C15831203138C010800831229
:1003A80003138519D829D929DC29FA01FA03DC298C
:1003B800080064008001840A040603190034040656
:0203C800DE292C
:02400E00C4FFED
:00000001FF
